:100000000C942A000C94EA000C9447000C944700CE
:100010000C9447000C9447000C9447000C94470044
:100020000C9447000C9447000C9447000C94470034
:100030000C9447000C9447000C9447000C94470024
:100040000C9447000C9447000C9447000C94470014
:100050000C94470011241FBECFE5D8E0DEBFCDBF12
:1000600010E0A0E6B0E0ECEBFBE002C005900D92E2
:10007000A639B107D9F721E0A6E9B0E001C01D9289
:10008000A430B207E1F70E947D010C94DC050C94CA
:100090000000FC010FB6F89460910001709101011D
:1000A00080910201909103010FBE309721F060838F
:1000B0007183828393830895EF92FF921F93CF936E
:1000C000DF9380E090E00E9449000E948402CBE927
:1000D000D0E00F2EFFEFEF2EF0E0FF2EF02D11E01D
:1000E0000E947F0283709078992324F401978C6F8B
:1000F0009F6F0196212F01C0220F8A95EAF729935D
:10010000CE15DF0569F7DF91CF911F91FF90EF903A
:1001100008951DBC1CBC9BBD8ABD1FBC8DE08EBD5F
:1001200008B604FEFDCF1EBC80E188BF089588BBE1
:10013000DF98DE98DD9A82E08A95F1F700C0DD98BD
:1001400087EC90E00197F1F700C00000089588BBAC
:10015000DF9ADE98DD9A82E08A95F1F700C0DD989B
:1001600087EC90E00197F1F700C0000008958FEF51
:1001700087BB8ABBDD988FE99FE00197F1F700C04C
:10018000000088E30E9497008EE00E94970081E0C3
:100190000E9497008FE99FE00197F1F700C00000EF
:1001A00086E00E94970008950F931F93CF93FC0160
:1001B0008081882359F08F01C0E00E94A700CF5FA3
:1001C000F801EC0FF11D80818111F7CFCF911F91C4
:1001D0000F9108951F920F920FB60F9211242F9333
:1001E0003F934F935F936F937F938F939F93AF93BF
:1001F000BF93CF93DF93EF93FF93849B04C0A89AA0
:10020000C1E0D0E011C0859B04C0A99AC2E0D0E053
:100210000BC0869B04C0AA9AC4E0D0E005C0879BAF
:1002200003C0AB9AC8E0D0E083E89EE10E94890059
:1002300015BA8091980090919900FC01E556FF4F06
:10024000208130E0C217D30721F10E94B70088E671
:1002500090E00E94D4001092670010926600109205
:1002600099001092980085EB9EE190936500809331
:10027000640081E090E090939700809396002FEFC8
:1002800089E698E1215080409040E1F700C00000ED
:1002900021C0019690939900809398002091660068
:1002A0003091670082179307A9F40E94B70083E793
:1002B00090E00E94D40083E89EE10E9489001092A1
:1002C000990010929800F89481E090E09093970044
:1002D00080939600FF91EF91DF91CF91BF91AF9105
:1002E0009F918F917F916F915F914F913F912F914E
:1002F0000F900FBE0F901F901895CF93DF93CDB73F
:10030000DEB7C456D1090FB6F894DEBF0FBECDBF1D
:100310000E94B7008FEF84BB11BA84E082BB83E0F8
:1003200085BF80E48BBF0E945C0080916600909145
:100330006700853691050CF095C001E810E07E015C
:1003400083E3E80EF11C812C912CCE0101966C0107
:100350000E94B7008BE790E00E94D40080EC0E94DE
:100360009700809166009091670001979F938F930B
:100370001F930F93FF92EF920E948F02C7010E947A
:10038000D40083E89EE10E9489000F900F900F90A7
:100390000F900F900F908091660090916700181653
:1003A0001906F4F4C401B12CFC01E556FF4F80811D
:1003B00085BB80916400909165000E94890015BA08
:1003C00080916400909165000E948900B3948B2D08
:1003D00090E020916600309167008217930724F324
:1003E00015BA0E94B70080E990E00E94D40080EC2A
:1003F0000E949700809166009091670001979F93FB
:100400008F931F930F93DF92CF920E948F02C601AA
:100410000E94D40078940F900F900F900F900F903F
:100420000F908091960090919700892BD1F3909234
:1004300097008092960080916600909167000196E7
:10044000909367008093660020916400309165006E
:10045000225331093093650020936400853691055D
:100460000CF476CFFFCF8F929F92AF92BF92CF9234
:10047000DF92EF92FF92CF93DF93EC016881798155
:100480008A819B81611571058105910521F464E2E2
:1004900079ED8BE597E02DE133EF41E050E00E94EC
:1004A000420549015A019B01AC01A7EAB1E40E944F
:1004B00061056B017C01ACEEB4EFA50194010E94D3
:1004C0006F05DC01CB018C0D9D1DAE1DBF1DB7FF5F
:1004D00003C00197A109B04888839983AA83BB838D
:1004E0009F77DF91CF91FF90EF90DF90CF90BF90FB
:1004F000AF909F908F9008950E943302089580E6F8
:1005000090E00E9433020895A0E0B0E08093600084
:1005100090936100A0936200B09363000895AEE0F1
:10052000B0E0E5E9F2E00C9482050D891E8986E0D1
:100530008C831A8309838FEF9FE79E838D83AE019F
:10054000475E5F4F6F89788DCE0101960E94B102A0
:10055000EF81F885E00FF11F10822E96E4E00C94F5
:100560009E05ABE0B0E0E7EBF2E00C9474056C01A3
:100570007B018A01FC0117821682838181FFCCC135
:10058000CE0101963C01F6019381F70193FD85911F
:1005900093FF81917F01882309F4BAC1853239F430
:1005A00093FD859193FF81917F01853229F4B601F6
:1005B00090E00E94A804E7CF912C212C312CFFE180
:1005C000F315D8F08B3279F038F4803279F0833239
:1005D000A1F4232D20611DC08D3261F0803369F4B8
:1005E000232D216016C0832D8260382EE32DE46018
:1005F0003E2E2AC0F32DF8601DC037FC2DC020ED23
:10060000280F2A3040F08E32B9F436FC81C1232DF8
:100610002064322E19C036FE06C08AE0989E200D56
:100620001124922E11C0EAE02E9E200D1124222EBC
:10063000F32DF0623F2E08C08C3621F4832D8068A4
:10064000382E02C0883641F4F70193FD859193FF5F
:1006500081917F018111B3CF982F9F7D9554933065
:1006600028F40C5F1F4F9FE399830DC0833631F050
:10067000833771F0833509F059C021C0F8018081BA
:1006800089830E5F1F4F88248394912C530113C0DC
:100690002801F2E04F0E511CF801A080B18036FE17
:1006A00003C0692D70E002C06FEF7FEFC5010E94AB
:1006B0009D044C018201F32DFF773F2E16C02801C7
:1006C00022E0420E511CF801A080B18036FE03C02A
:1006D000692D70E002C06FEF7FEFC5010E949204A8
:1006E0004C01F32DF0683F2E820133FC1BC0822D9C
:1006F00090E088169906B0F4B60180E290E00E947E
:10070000A8042A94F4CFF50137FC859137FE819136
:100710005F01B60190E00E94A80421102A9421E014
:10072000821A91088114910471F7E8C0843611F09F
:10073000893641F5F80137FE07C0608171818281F9
:1007400093810C5F1F4F08C060817181072E000CE0
:10075000880B990B0E5F1F4FF32DFF763F2E97FFEF
:1007600009C090958095709561957F4F8F4F9F4FF1
:10077000F0683F2E2AE030E0A3010E94E404882EB6
:10078000861845C0853731F4232D2F7EB22E2AE0FE
:1007900030E025C0932D997FB92E8F36C1F018F423
:1007A000883579F0B5C0803719F0883721F0B0C0AE
:1007B000E92FE061BE2EB4FE0DC0FB2DF460BF2E0C
:1007C00009C034FE0AC0292F2660B22E06C028E0D8
:1007D00030E005C020E130E002C020E132E0F80165
:1007E000B7FE07C060817181828193810C5F1F4FCA
:1007F00006C06081718180E090E00E5F1F4FA30111
:100800000E94E404882E8618FB2DFF773F2E36FECB
:100810000DC0232D2E7FA22E891458F434FE0BC058
:1008200032FC09C0832D8E7EA82E05C0B82CA32CC7
:1008300003C0B82C01C0B92CA4FE0FC0FE01E80D06
:10084000F11D8081803321F49A2D997EA92E09C053
:10085000A2FE06C0B394B39404C08A2D867809F032
:10086000B394A3FC11C0A0FE06C0B21488F4280CF7
:10087000922C9B180EC0B21460F4B60180E290E096
:100880000E94A804B394F7CFB21418F42B1802C036
:10089000982C212CA4FE10C0B60180E390E00E94A9
:1008A000A804A2FE17C0A1FC03C088E790E002C024
:1008B00088E590E0B6010CC08A2D867859F0A1FE3B
:1008C00002C08BE201C080E2A7FC8DE2B60190E09D
:1008D0000E94A804891438F4B60180E390E00E94D5
:1008E000A8049A94F7CF8A94F301E80DF11D808152
:1008F000B60190E00E94A8048110F5CF222009F4EF
:1009000042CEB60180E290E00E94A8042A94F6CF7D
:10091000F6018681978102C08FEF9FEF2B96E2E16F
:100920000C949005FC010590615070400110D8F7BF
:10093000809590958E0F9F1F0895FC016150704027
:1009400001900110D8F7809590958E0F9F1F089504
:100950000F931F93CF93DF93FB01238121FD03C0EE
:100960008FEF9FEF2CC022FF16C046815781248154
:1009700035814217530744F4A081B1819D012F5F57
:100980003F4F318320838C93268137812F5F3F4FE8
:100990003783268314C08B01EC01FB010084F185B1
:1009A000E02D0995892BE1F6D80116968D919C9141
:1009B0001797019617969C938E931697CE01DF9109
:1009C000CF911F910F910895FA01AA27283051F174
:1009D000203181F1E8946F936E7F6E5F7F4F8F4F70
:1009E0009F4FAF4FB1E03ED0B4E03CD0670F781FCF
:1009F000891F9A1FA11D680F791F8A1F911DA11DB4
:100A00006A0F711D811D911DA11D20D009F46894EC
:100A10003F912AE0269F11243019305D3193DEF694
:100A2000CF010895462F4770405D4193B3E00FD04A
:100A3000C9F7F6CF462F4F70405D4A3318F0495D35
:100A400031FD4052419302D0A9F7EACFB4E0A69518
:100A50009795879577956795BA95C9F7009761053A
:100A6000710508959B01AC010A2E06945795479590
:100A700037952795BA95C9F7620F731F841F951F85
:100A8000A01D0895052E97FB1EF400940E945905A1
:100A900057FD07D00E94AB0507FC03D04EF40C9421
:100AA000590550954095309521953F4F4F4F5F4FD9
:100AB000089590958095709561957F4F8F4F9F4FCA
:100AC00008950E94CD05A59F900DB49F900DA49F01
:100AD000800D911D11240895B7FF0C9461050E94AB
:100AE0006105821B930B08952F923F924F925F9264
:100AF0006F927F928F929F92AF92BF92CF92DF922E
:100B0000EF92FF920F931F93CF93DF93CDB7DEB792
:100B1000CA1BDB0B0FB6F894DEBF0FBECDBF099426
:100B20002A88398848885F846E847D848C849B847D
:100B3000AA84B984C884DF80EE80FD800C811B818B
:100B4000AA81B981CE0FD11D0FB6F894DEBF0FBEBA
:100B5000CDBFED010895A1E21A2EAA1BBB1BFD011A
:100B60000DC0AA1FBB1FEE1FFF1FA217B307E4078C
:100B7000F50720F0A21BB30BE40BF50B661F771FE4
:100B8000881F991F1A9469F76095709580959095C4
:100B90009B01AC01BD01CF010895A29FB001B39F9D
:100BA000C001A39F700D811D1124911DB29F700D76
:0C0BB000811D1124911D0895F894FFCFC1
:100BBC0001000000831E010047616D65206F7665A2
:100BCC00722100434F5252454354005741544348FD
:100BDC0000596F75722053636F72653A202564005B
:060BEC00504C41590000CD
:00000001FF
